S00F000050726F6A6563742E737265633E
S11300004BC0000070C300008FC3000062C000003A
S1130010AFC30000BCC300005CC000005AC00000B5
S113002058C0000056C0000054C0000052C0000078
S113003050C000004EC000004CC000004AC0000088
S113004048C0000046C0000044C0000042C0000098
S113005040C000003EC000003CC000003AC00000A8
S113006038C0000036C0000034C0000032C00000B8
S113007030C000009BC300002CC000002AC0000058
S113008028C0000026C0000024C0000022C00000D8
S113009020C000001EC0000011241FBECFEFD0E21C
S11300A0DEBFCDBF11E0A0E0B1E0E0E9FAE000E09E
S11300B00BBF02C007900D92AA32B107D9F721E015
S11300C0AAE2B1E001C01D92AC33B207E1F710D24D
S11300D0DDC4ACC387B1807F87B9459A46980000D8
S11300E0479A000086B18295807F000047980000FF
S11300F0479A000096B1000047980000882384F3D3
S1130100459887B18F6087B90895282F22952F705D
S11301108F70611102C0469801C0469A0000479A48
S113012098B1907F922B98B9000047980000479AA5
S113013098B1907F892B88B9000047980000CACFF6
S11301400895CF93C82F8BE49DE10197F1F700C088
S1130150000087B18F6087B93F9A3E9A3D9A88B173
S1130160807F88B94798459846980000479A419AF5
S1130170000047980000AEDF60E08C2F8C60C5DF84
S113018060E088E2C2DFCF910895CF93DF93EC0162
S11301908881882331F0219661E0B7DF899181114C
S11301A0FBCFDF91CF910895883228F461118064E8
S11301B060E08068AACF0895FC0111821082FB01DF
S11301C0118210820895CF93DF93EC0183E090E0D5
S11301D03CD399838883FC0112821182DF91CF91F1
S11301E00895DB01ED91FC91309761F0DA018D9176
S11301F09C911197928381838D919C91FB019183B2
S113020080830895DA012D913C911197FC0131838B
S113021020838D919C91DB018D939C930895FC0127
S113022080819181DA018D939C93A081B181109793
S113023059F011968D919C91129791838083892B0B
S113024019F4FB01118210820895DC01ED91FC91F7
S113025080810895FC0181E020813181232B09F004
S113026080E00895E9E6F0E0808180638083EAE736
S1130270F0E0808180688083808188608083ECE7FF
S1130280F0E0808180668083EEE7F0E08081816029
S11302908083089584B5816084BD84B5826084BD03
S11302A084B5806884BD85B5826085BD80E887BDDE
S11302B084B90895CF93DF93EC0160E081E025DFFA
S11302C060E082E022DFCE01C5DF8AE091E05DDFFD
S11302D0DF91CF9108958D3A23E0920754F48C3B3B
S11302E022E092074CF48F3591404CF482E390E085
S11302F0089580E090E0089584E690E0089586E90A
S113030090E00895AC01E1E8F0E09081986090837A
S113031088EE93E090938900809388001092850082
S113032010928400B19A20E030E005C0B19BFECF6A
S1130330B19A2F5F3F4F241735071CF4B19BF6CFBA
S1130340F7CF0895DF92EF92FF920F931F93CF930D
S1130350DF93181619060CF058C0D62EEC01E12CC8
S1130360F12C03E010E080912C0190912D01843058
S113037091052CF010922D0110922C0106C09923A6
S113038024F410932D0100932C01E0912C01F091A1
S11303902D01EE0FFF1FEF5DFE4F808182B9DD203E
S11303A0A9F080912C0190912D01019690932D013B
S11303B080932C0180912E0190912F01893C91050D
S11303C0C4F010922F0110922E0113C080912C01C1
S11303D090912D01019790932D0180932C01809190
S11303E02E0190912F01992324F410922F01109241
S11303F02E01809106019091070184DF8FEFE81AA6
S1130400F80ACE15DF0509F0AECFDF91CF911F9129
S11304100F91FF90EF90DF900895EF92FF920F936A
S11304201F93CF93DF9310922F0110922E0189B165
S113043082FB882780F9C82F40E0D42F8E0120E06A
S113044030E0E12CF12C209739F0C017D10719F0D6
S11304508E01790101C08E0161E081E090E072DFDC
S113046089B182FB882780F9C82F50E0D52F2091CD
S11304702E0130912F01283C31052CF31E141F044A
S11304801CF488EC90E002C080E090E08E0D9F1D8B
S113049099230CF4019695958795893C91052CF444
S11304A0909331018093300106C0885C9109909348
S11304B03101809330018091300190913101821794
S11304C093073CF460E0A901481B590BCA013ADFC9
S11304D004C061E0821B930B35DF10922F01109250
S11304E02E01DF91CF911F910F91FF90EF9008950E
S11304F08F929F92AF92BF92CF92DF92EF92FF9230
S11305000F931F93CF93DF93CDB7DEB728970FB622
S1130510F894DEBF0FBECDBFBE016D5F7F4FCE012D
S113052001964ADEF89482EF85B9E1E8F0E0808133
S1130530816080838FEF81B984B987B91AB810BA02
S113054080E0FFDD6ADFA6DE8DDE78940F2EF8E012
S1130550AF2EF1E0BF2EF02D0F2EFFE0CF2ED12CC9
S1130560F02D0F2EF4E1EF2EF12CF02D0AE010E027
S1130570809135018823C9F0489B17C0CE010796A6
S113058022DE8F8098848091360190913701A3DE1A
S1130590F4018083AE01495F5F4FBE016D5F7F4F01
S11305A0CE0101961EDE10923501489929C0209192
S11305B02E0130912F018091300190913101281743
S11305C03907F1F4AE014B5F5F4FBE016D5F7F4FA2
S11305D0CE01019624DE8D819E81CFD180912A01A6
S11305E090912B01019690932B0180932A01809185
S11305F03201882329F0F501808187BD10923201F0
S1130600CE01019627DE811130C0CE0101961DDE98
S113061090E0909331018093300120912E0130912C
S11306202F018217930729F1821B930B9C0122F45B
S113063022273327281B390B253631052CF010933C
S11306400701009306010CC0233331052CF0D0922E
S11306500701C092060104C0F0920701E09206016E
S113066061E081E090E06EDE04C08091330181118D
S11306701AC080913401882309F47ACF84E690E08B
S113068041DE10923401BE016D5F7F4FCE010196B1
S113069011DE809134018823E1F384E690E032DEB8
S11306A01092340163CF88EC90E02CDE17BCF894F0
S11306B0BE016D5F7F4FCE010196FCDD80E090E0CE
S11306C028960FB6F894DEBF0FBECDBFDF91CF9151
S11306D01F910F91FF90EF90DF90CF90BF90AF905C
S11306E09F908F9008951F920F920FB60F9211242E
S11306F02F933F938F939F9320912E0130912F013D
S113070080913001909131012817390721F017BCED
S113071081E0809332019F918F913F912F910F90AF
S11307200FBE0F901F9018951F920F920FB60F9245
S113073011240BB60F928F939F93EF93FF9381E055
S11307408093350182E090E09093370180933601E5
S1130750EAE7F0E0808180648083FF91EF919F91CC
S11307608F910F900BBE0F900FBE0F901F90189596
S11307701F920F920FB60F9211248F9381E08093F2
S113078034018F910F900FBE0F901F9018951F92F8
S11307900F920FB60F9211248F9381E0809333014F
S11307A08F910F900FBE0F901F9018951F920F926C
S11307B00FB60F9211240BB60F922F933F934F93C2
S11307C08F939F93EF93FF938091790040917800EA
S11307D0209136013091370190E0982F8827840FBB
S11307E0911D8217930768F4809179002091780015
S11307F090E0982F8827820F911D90933701809362
S11308003601489B05C0EAE7F0E08081806480837C
S1130810FF91EF919F918F914F913F912F910F9065
S11308200BBE0F900FBE0F901F9018951F920F9242
S11308300FB60F92112460E081E067DC61E081E093
S1130840B3DC89E191E0A1DCFFCF0F931F93CF9339
S1130850DF938230910510F482E090E0E0913A0158
S1130860F0913B0120E030E0A0E0B0E0309719F1D6
S1130870408151810281138148175907C8F08417B8
S1130880950769F4109731F012960C93129713960A
S11308901C9327C000933A0110933B0122C02115F9
S11308A0310519F04217530718F49A01BD01EF01FD
S11308B0DF01F801DBCF21153105F9F0281B390BD5
S11308C02430310580F48A819B816115710521F002
S11308D0FB019383828304C090933B0180933A018C
S11308E0FE01329644C0FE01E20FF31F81939193FF
S11308F022503109398328833AC02091380130913C
S11309003901232B41F420910201309103013093EA
S11309103901209338012091000130910101211502
S1130920310541F42DB73EB74091040150910501C2
S1130930241B350BE0913801F0913901E217F307DC
S1130940A0F42E1B3F0B2817390778F0AC014E5F3B
S11309505F4F2417350748F04E0F5F1F509339013E
S1130960409338018193919302C0E0E0F0E0CF011D
S1130970DF91CF911F910F910895CF93DF9300974B
S113098009F481C0FC01329713821282A0913A01CA
S1130990B0913B01109781F420813181820F931F24
S11309A020913801309139012817390751F5F09316
S11309B03901E093380167C0ED0120E030E0CE1743
S11309C0DF0740F44A815B819E0141155105F1F036
S11309D0EA01F5CFD383C28340815181840F951FEF
S11309E0C817D90759F488819981840F951F0296F5
S11309F0918380838A819B8193838283211531052E
S1130A0029F4F0933B01E0933A013DC0E901FB83F3
S1130A10EA8349915991C40FD51FEC17FD0761F47E
S1130A2080819181840F951F0296E90199838883BF
S1130A30828193819B838A83E0E0F0E012968D911A
S1130A409C911397009719F0FD01DC01F7CF8D916C
S1130A509C9111979D012E5F3F4F820F931F209110
S1130A603801309139012817390769F4309729F48E
S1130A7010923B0110923A0102C013821282B09389
S1130A803901A0933801DF91CF910895F894FFCFF5
S1130A9000003C0120001400BE00444953504C4166
S1130AA0592053545546462100424144204953524B
S10D0AB000300006002800050000D5
S9030000FC
