:100000004BC00000DEC400005AC5000062C0000002
:100010007AC500008DC500005CC000005AC0000019
:1000200058C0000056C0000054C0000052C000007C
:1000300050C000004EC000004CC000004AC000008C
:1000400048C0000046C0000044C0000042C000009C
:1000500040C000003EC000003CC000003AC00000AC
:1000600038C0000036C0000034C0000032C00000BC
:1000700030C000006CC500002CC000002AC0000089
:1000800028C0000026C0000024C0000022C00000DC
:1000900020C000001EC0000011241FBECFEFD0E220
:1000A000DEBFCDBF11E0A0E0B1E0EEE7FEE000E092
:1000B0000BBF02C007900D92AE38B107D9F721E00F
:1000C000AEE8B1E001C01D92A03BB207E1F781D3D9
:1000D000D4C679C587B1807F87B9459A4698000014
:1000E000479A000086B18295807F00004798000003
:1000F000479A000096B1000047980000882384F3D7
:10010000459887B18F6087B90895282F22952F7061
:100110008F70611102C0469801C0469A0000479A4C
:1001200098B1907F922B98B9000047980000479AA9
:1001300098B1907F892B88B9000047980000CACFFA
:100140000895CF93C82F8BE49DE10197F1F700C08C
:10015000000087B18F6087B93F9A3E9A3D9A88B177
:10016000807F88B94798459846980000479A419AF9
:10017000000047980000AEDF60E08C2F8C60C5DF88
:1001800060E088E2C2DFCF910895CF93DF93EC0166
:100190008881882331F0219661E0B7DF8991811150
:1001A000FBCFDF91CF910895EF92FF920F931F93B2
:1001B000CF93DF9300D000D01F92CDB7DEB77B0185
:1001C000FE01319625E0DF011D922A95E9F700979F
:1001D00051F035962AE030E0B90107D58293862F99
:1001E000972F0097C9F7BFEFEB16FB0669F48981DB
:1001F00081111DC0FE01329600E010E00F5F1F4F1D
:1002000081918823D9F30FC005E010E00E191F0972
:100210000AC0F80181918F0161E0805D76DF0E15E3
:100220001F05B9F711C0053011051CF00DC000E025
:1002300010E081E090E08C0F9D1F080F191F7E01D8
:1002400096E0E90EF11CE5CF0F900F900F900F9004
:100250000F90DF91CF911F910F91FF90EF90089534
:10026000883228F46111806460E080684ECF089580
:10027000FC0111821082FB01118210820895CF933C
:10028000DF93EC0183E090E0D7D499838883FC016D
:1002900012821182DF91CF910895DB01ED91FC91E3
:1002A000309761F0DA018D919C911197928381834F
:1002B0008D919C91FB01918380830895DA012D91AA
:1002C0003C911197FC01318320838D919C91DB013E
:1002D0008D939C930895FC0180819181DA018D9327
:1002E0009C93A081B181109759F011968D919C91AA
:1002F000129791838083892B19F4FB01118210825C
:100300000895DC01ED91FC9180810895FC0181E06C
:1003100020813181232B09F080E00895DC01ED91EB
:10032000FC91309749F080E090E001960180F281E5
:10033000E02D3097D1F7089580E090E00895EAE746
:10034000F0E0808180688083808188608083ECE732
:10035000F0E0808181648083EEE7F0E0808182605C
:100360008083089584B5816084BD84B5826084BD36
:1003700084B5806884BD85B5826085BD80910801A3
:1003800087BD0895E89AE9E6F0E080818260808385
:10039000E99A80818C608083EB9A80818068808379
:1003A000EC9AEAE6F0E080818260808308958D3ADD
:1003B00023E0920754F48C3B22E092074CF48F35F3
:1003C00091404CF482E390E0089580E090E008953D
:1003D00084E690E0089586E990E0089582339105DF
:1003E000A9F01CF4892B41F0089584369105C1F0E1
:1003F00086399105F9F008958091980190919901BD
:1004000001969093990180939801089580919601A7
:10041000909197010196909397018093960108958A
:10042000809194019091950101969093950180930C
:100430009401089580919201909193010196909377
:100440009301809392010895AC01E1E8F0E090817E
:100450009860908388EE93E0909389008093880061
:100460001092850010928400B19A20E030E005C01F
:10047000B19BFECFB19A2F5F3F4F241735071CF475
:10048000B19BF6CFF7CF0895EF92FF920F931F9392
:10049000CF93DF938C017B0160E081E036DE60E08A
:1004A00082E033DE8AE091E070DE61E080E0D8DE59
:1004B00064E070E080919A0190919B0175DE61E0AB
:1004C00084E0CEDEB701C80129DF20919A01309186
:1004D0009B0163E070E0820F931F66DE61E087E0BE
:1004E000BFDE8091910163E070E090E05DDEC4E1E9
:1004F000D0E005C084E690E0A7DF219741F080912D
:100500008F018111F7CF809190018111F3CF60E0CD
:1005100081E0FBDD60E082E0F8DD84E191E035DE42
:1005200061E080E09DDE63E070E080919801909151
:1005300099013ADE61E083E093DE63E070E0809150
:1005400096019091970130DE61E086E089DE63E0FC
:1005500070E0809194019091950126DE61E089E040
:100560007FDE63E070E080919201909193011CDE48
:1005700061E08DE075DEB701C801D0DE63E070E0B8
:1005800013DECEE1D0E005C084E690E05DDF219788
:1005900041F080918F018111F7CF809190018111FD
:1005A000F3CFDF91CF911F910F91FF90EF900895BE
:1005B0009F92AF92BF92CF92DF92EF92FF920F93F2
:1005C0001F93CF93DF93EC01992324F4CC27DD27ED
:1005D000C81BD90B1C161D060CF0ABC0962EA12C07
:1005E000B12C0F2EF7ECCF2ED12CF02D0F2EF3E0E7
:1005F000EF2EF12CF02D08EC10E0992001F1809104
:10060000A0019091A10101969093A1018093A00176
:1006100080919E0190919F010196883C91052CF05C
:1006200010929F0110929E0127C080919E0190918F
:100630009F01019690939F0180939E011DC0809120
:10064000A0019091A10101979093A1018093A00135
:1006500080919E0190919F0101972AF4D0929F0171
:10066000C0929E0109C080919E0190919F010197C7
:1006700090939F0180939E018091A0019091A10190
:1006800004972CF01092A1011092A0010AC0809151
:10069000A0019091A101992324F4F092A101E0928C
:1006A000A00180919C0190919D0120919E0130912B
:1006B0009F01821B930B9C0122F422273327281BC6
:1006C000390BA901253631051CF0A801421B530B3B
:1006D00080910601909107018B3091054CF04B30D1
:1006E000510534F0019790930701809306010BC0E8
:1006F0008431910544F44A3051052CF401969093CD
:10070000070180930601E091A001F091A101EE0F95
:10071000FF1FEA57FE4F808182B9809106019091B8
:10072000070192DE8FEFA81AB80ACA15DB0509F097
:1007300064CFDF91CF911F910F91FF90EF90DF90E9
:10074000CF90BF90AF909F90089560E081E0DDDC96
:1007500060E082E0DADC84E291E017DD10929F0134
:1007600010929E014A9B06C061E081E090E020DF8C
:100770004A99FACF60E084E090E01ADF10929F017E
:1007800010929E0160E081E0C0DC60E082E0BDDCB0
:1007900081E391E0FACC08958233910571F01CF465
:1007A000892BA1F010C08436910521F0863991057E
:1007B00039F009C085E491E008958BE491E0089553
:1007C00080E591E0089580E691E008958FE391E05F
:1007D0000895EF92FF920F931F93CF93DF9300D072
:1007E000CDB7DEB764EA71E086EA91E041DDF894C6
:1007F000E1E8F0E08081816080838FEF81B984B986
:1008000087B91AB810BA80E09CDC9FDFABDD82E0CC
:1008100085B995DDB7DD789408EC10E08091910101
:10082000882359F1499929C0CE01019628DDE98034
:10083000FA808091A2019091A301B9DDF701808334
:10084000AE014F5F5F4F64EA71E086EA91E025DD1B
:100850001092910160E081E058DC60E082E055DCBC
:1008600086E591E092DC60E08AE0FADC8091A2010A
:100870009091A3019CDD90DF88DC86EA91E046DD63
:10088000811131C0489B33C086EA91E03ADD90E0A7
:1008900090939D0180939C0120919E0130919F0136
:1008A00080919C0190919D012817390701F1809159
:1008B0009C0190919D0120919E0130919F01821B8E
:1008C000930B2AF491958195910960E001C061E054
:1008D0008536910524F081E0611180E0682F81E088
:1008E00090E066DE04C080918F0181114CC0809140
:1008F0009001882309F492CF15B860E081E005DC0F
:1009000060E082E002DC8EE691E03FDC20919E0117
:1009100030919F0180919C0190919D01281739078A
:10092000E9F080919C0190919D0120919E01309170
:100930009F01821B930B2AF491958195910960E0A8
:1009400001C061E08536910544F09801281B390B00
:10095000C90121E0611120E0622F2ADE64EA71E022
:1009600086EA91E091DD809190018111FCCF60E0F9
:1009700081E0CBDB60E082E0C8DB85E791E005DC6D
:1009800082E085B94BCF60E081E0BFDB60E082E0D0
:10099000BCDB81E691E0F9DB88EC90E055DD15B831
:1009A000F89464EA71E086EA91E06EDD80E090E020
:1009B0000F900F90DF91CF911F910F91FF90EF90CB
:1009C00008951F920F920FB60F9211240BB60F923B
:1009D0002F933F934F935F936F937F938F939F9347
:1009E000AF93BF93EF93FF9386EA91E08ADC90E0A8
:1009F00090939D0180939C0120919E0130919F01D5
:100A000080919C0190919D012817390719F115B823
:100A100081E080938E0180919C0190919D012091B5
:100A20009E0130919F01821B930B2AF49195819531
:100A3000910960E001C061E08536910554F028EC31
:100A400030E0A901481B590BCA0121E0611120E0E7
:100A5000622FAEDD4AEA51E064EA71E086EA91E095
:100A60003ADC8091AA019091AB017ED180919A01EC
:100A700090919B01019690939B0180939A018091A4
:100A80009C0190919D01AADC80918E01882321F028
:100A900082E085B910928E01FF91EF91BF91AF91E5
:100AA0009F918F917F916F915F914F913F912F9186
:100AB0000F900BBE0F900FBE0F901F9018951F92B6
:100AC0000F920FB60F9211240BB60F928F939F9334
:100AD000EF93FF9381E08093910180E094E0909305
:100AE000A3018093A201EAE7F0E080818064808323
:100AF000FF91EF919F918F910F900BBE0F900FBEC2
:100B00000F901F9018951F920F920FB60F921124FD
:100B10008F939F939091900181E0911180E0809359
:100B200090019F918F910F900FBE0F901F9018957D
:100B30001F920F920FB60F9211248F9381E0809332
:100B40008F018F910F900FBE0F901F9018951F92DD
:100B50000F920FB60F9211240BB60F922F933F9363
:100B60008F939F93EF93FF938091780090917900FA
:100B70009093A9018093A8012091A8013091A90127
:100B80008091A2019091A3012817390740F4809128
:100B9000A8019091A9019093A3018093A201499B80
:100BA00005C0EAE7F0E0808180648083FF91EF91E7
:100BB0009F918F913F912F910F900BBE0F900FBE81
:100BC0000F901F9018951F920F920FB60F9211243D
:100BD00060E081E09ADA60E082E097DA61E081E04B
:100BE0003FDB8EE791E0D1DAFFCF97FB072E16F4BB
:100BF000009406D077FD08D00BD007FC05D03EF45A
:100C0000909581959F4F0895709561957F4F0895B8
:100C1000AA1BBB1B51E107C0AA1FBB1FA617B70722
:100C200010F0A61BB70B881F991F5A95A9F780953E
:100C30009095BC01CD0108950F931F93CF93DF933F
:100C40008230910510F482E090E0E091AE01F091E5
:100C5000AF0120E030E0A0E0B0E0309719F1408132
:100C600051810281138148175907C8F084179507ED
:100C700069F4109731F012960C93129713961C9307
:100C800027C00093AE011093AF0122C0211531059A
:100C900019F04217530718F49A01BD01EF01DF0163
:100CA000F801DBCF21153105F9F0281B390B243071
:100CB000310580F48A819B816115710521F0FB016A
:100CC0009383828304C09093AF018093AE01FE01B1
:100CD000329644C0FE01E20FF31F8193919322509C
:100CE0003109398328833AC02091AC013091AD019C
:100CF000232B41F420910201309103013093AD0187
:100D00002093AC01209100013091010121153105A2
:100D100041F42DB73EB74091040150910501241BC9
:100D2000350BE091AC01F091AD01E217F307A0F4AF
:100D30002E1B3F0B2817390778F0AC014E5F5F4F31
:100D40002417350748F04E0F5F1F5093AD014093B5
:100D5000AC018193919302C0E0E0F0E0CF01DF911C
:100D6000CF911F910F910895CF93DF93009709F4CE
:100D700081C0FC01329713821282A091AE01B09122
:100D8000AF01109781F420813181820F931F209150
:100D9000AC013091AD012817390751F5F093AD0141
:100DA000E093AC0167C0ED0120E030E0CE17DF0733
:100DB00040F44A815B819E0141155105F1F0EA0141
:100DC000F5CFD383C28340815181840F951FC8170B
:100DD000D90759F488819981840F951F02969183D0
:100DE00080838A819B81938382832115310529F435
:100DF000F093AF01E093AE013DC0E901FB83EA83CC
:100E000049915991C40FD51FEC17FD0761F48081FA
:100E10009181840F951F0296E901998388838281CD
:100E200093819B838A83E0E0F0E012968D919C9100
:100E30001397009719F0FD01DC01F7CF8D919C917C
:100E400011979D012E5F3F4F820F931F2091AC01A0
:100E50003091AD012817390769F4309729F41092C1
:100E6000AF011092AE0102C013821282B093AD01A5
:0E0E7000A093AC01DF91CF910895F894FFCFCD
:100E7E000000B0012000140050005352542046448C
:100E8E0020504400424C20414C20574820535420BF
:100E9E00234F4200536561726368696E672E2E2E72
:100EAE000050726F6772616D2053746172740042EC
:100EBE004C41434B00574849544500414C554D0059
:100ECE00535445454C004D6174657269616C3A200E
:100EDE000052616D70696E6720646F776E005061AD
:100EEE007573656400556E7061757365640042417B
:0E0EFE0044204953520036002E002D003500CE
:00000001FF
