:100000004BC0000018C4000081C4000062C00000A2
:10001000A1C40000B4C400005CC000005AC00000CD
:1000200058C0000056C0000054C0000052C000007C
:1000300050C000004EC000004CC000004AC000008C
:1000400048C0000046C0000044C0000042C000009C
:1000500040C000003EC000003CC000003AC00000AC
:1000600038C0000036C0000034C0000032C00000BC
:1000700030C0000093C400002CC000002AC0000063
:1000800028C0000026C0000024C0000022C00000DC
:1000900020C000001EC0000011241FBECFEFD0E220
:1000A000DEBFCDBF11E0A0E0B1E0E6ECFCE000E097
:1000B0000BBF02C007900D92AE38B107D9F721E00F
:1000C000AEE8B1E001C01D92A03BB207E1F700D35A
:1000D000F8C5A0C487B1807F87B9459A46980000CB
:1000E000479A000086B18295807F00004798000003
:1000F000479A000096B1000047980000882384F3D7
:10010000459887B18F6087B90895282F22952F7061
:100110008F70611102C0469801C0469A0000479A4C
:1001200098B1907F922B98B9000047980000479AA9
:1001300098B1907F892B88B9000047980000CACFFA
:100140000895CF93C82F8BE49DE10197F1F700C08C
:10015000000087B18F6087B93F9A3E9A3D9A88B177
:10016000807F88B94798459846980000479A419AF9
:10017000000047980000AEDF60E08C2F8C60C5DF88
:1001800060E088E2C2DFCF910895CF93DF93EC0166
:100190008881882331F0219661E0B7DF8991811150
:1001A000FBCFDF91CF910895EF92FF920F931F93B2
:1001B000CF93DF9300D000D01F92CDB7DEB77B0185
:1001C000FE01319625E0DF011D922A95E9F700979F
:1001D00051F035962AE030E0B9012BD48293862F76
:1001E000972F0097C9F7BFEFEB16FB0669F48981DB
:1001F00081111DC0FE01329600E010E00F5F1F4F1D
:1002000081918823D9F30FC005E010E00E191F0972
:100210000AC0F80181918F0161E0805D76DF0E15E3
:100220001F05B9F711C0053011051CF00DC000E025
:1002300010E081E090E08C0F9D1F080F191F7E01D8
:1002400096E0E90EF11CE5CF0F900F900F900F9004
:100250000F90DF91CF911F910F91FF90EF90089534
:10026000883228F46111806460E080684ECF089580
:10027000FC0111821082FB01118210820895CF933C
:10028000DF93EC0183E090E0FBD399838883FC014A
:1002900012821182DF91CF910895DB01ED91FC91E3
:1002A000309761F0DA018D919C911197928381834F
:1002B0008D919C91FB01918380830895DA012D91AA
:1002C0003C911197FC01318320838D919C91DB013E
:1002D0008D939C930895FC0180819181DA018D9327
:1002E0009C93A081B181109759F011968D919C91AA
:1002F000129791838083892B19F4FB01118210825C
:100300000895DC01ED91FC9180810895FC0181E06C
:1003100020813181232B09F080E00895DC01ED91EB
:10032000FC91309749F080E090E001960180F281E5
:10033000E02D3097D1F7089580E090E00895EAE746
:10034000F0E0808180688083808188608083ECE732
:10035000F0E0808181648083EEE7F0E0808182605C
:100360008083089584B5816084BD84B5826084BD36
:1003700084B5806884BD85B5826085BD80910801A3
:1003800087BD0895E89AE9E6F0E080818260808385
:10039000E99A80818C608083EB9A80818068808379
:1003A000EC9AEAE6F0E080818260808308958D3ADD
:1003B00023E0920754F48C3B22E092074CF48F35F3
:1003C00091404CF482E390E0089580E090E008953D
:1003D00084E690E0089586E990E0089582339105DF
:1003E000A9F01CF4892B41F0089584369105C1F0E1
:1003F00086399105F9F008958091980190919901BD
:1004000001969093990180939801089580919601A7
:10041000909197010196909397018093960108958A
:10042000809194019091950101969093950180930C
:100430009401089580919201909193010196909377
:100440009301809392010895AC01E1E8F0E090817E
:100450009860908388EE93E0909389008093880061
:100460001092850010928400B19A20E030E005C01F
:10047000B19BFECFB19A2F5F3F4F241735071CF475
:10048000B19BF6CFF7CF08950F931F93CF93DF93D0
:10049000EC018B0160E081E038DE60E082E035DE77
:1004A0008AE091E072DE61E080E0DADE64E070E034
:1004B00080919A0190919B0177DE61E084E0D0DE2B
:1004C000B801CE012BDF63E070E06EDE61E087E013
:1004D000C7DE8091910163E070E090E065DE80ED21
:1004E00097E0B2DF60E081E010DE60E082E00DDEE8
:1004F00084E191E04ADE61E080E0B2DE63E070E03A
:1005000080919801909199014FDE61E083E0A8DE2F
:1005100063E070E0809196019091970145DE61E083
:1005200086E09EDE63E070E08091940190919501F9
:100530003BDE61E089E094DE63E070E0809192014F
:100540009091930131DE61E08DE08ADEB801CE0149
:10055000E5DE63E070E028DE88EB9BE075DFDF918D
:10056000CF911F910F910895BF92CF92DF92EF929A
:10057000FF920F931F93CF93DF93181619060CF079
:100580005DC0B62EEC01C12CD12C0F2EF3E0EF2E66
:10059000F12CF02D07EC10E08091A0019091A101C9
:1005A000843091052CF01092A1011092A00106C098
:1005B000992324F4F092A101E092A001E091A0011E
:1005C000F091A101EE0FFF1FEA57FE4F808182B923
:1005D000BB20A9F08091A0019091A1010196909378
:1005E000A1018093A00180919E0190919F01883C80
:1005F0009105C4F010929F0110929E0113C080914A
:10060000A0019091A10101979093A1018093A00175
:1006100080919E0190919F01992324F410939F0152
:1006200000939E0180910601909107010DDF8FEFED
:10063000C81AD80ACC15DD0509F0AECFDF91CF91ED
:100640001F910F91FF90EF90DF90CF90BF90089592
:1006500060E081E05ADD60E082E057DD84E291E015
:1006600094DD10929F0110929E014A9B06C061E0AA
:1006700081E090E079DF4A99FACF10929F011092C1
:100680009E0160E081E041DD60E082E03EDD81E3EB
:1006900091E07BCD08958233910571F01CF4892B94
:1006A000A1F010C08436910521F08639910539F00A
:1006B00009C085E491E008958BE491E0089580E518
:1006C00091E0089580E691E008958FE391E0089528
:1006D0000F931F93CF93DF9300D0CDB7DEB764EABB
:1006E00071E086EA91E0C4DDF894E1E8F0E0808111
:1006F000816080838FEF81B984B987B91AB810BA45
:1007000080E01FDDA5DF2EDE82E085B918DE3ADE4F
:10071000789480919101882359F1499929C0CE019B
:100720000196ADDD09811A818091A2019091A3010A
:100730003EDEF8018083AE014F5F5F4F64EA71E0F7
:1007400086EA91E0AADD1092910160E081E0DDDCB3
:1007500060E082E0DADC86E591E017DD60E08AE0C7
:100760007FDD8091A2019091A30121DE94DF0DDD58
:1007700086EA91E0CBDD81111AC086EA91E0C1DD05
:1007800090E090939D0180939C0120919E01309177
:100790009F018217930779F0821B930B61E0181673
:1007A00019060CF060E081E090E0DEDE04C080918C
:1007B0008F01811124C080919001882309F4A9CF71
:1007C00015B860E081E0A1DC60E082E09EDC8EE6AE
:1007D00091E0DBDC64EA71E086EA91E055DE80912D
:1007E00090018111FCCF60E081E08FDC60E082E06D
:1007F0008CDC85E791E0C9DC82E085B98ACF60E0D6
:1008000081E083DC60E082E080DC81E691E0BDDCB9
:1008100088EC90E019DE15B8F89464EA71E086EA95
:1008200091E032DE80E090E00F900F90DF91CF9169
:100830001F910F9108951F920F920FB60F921124DE
:100840000BB60F922F933F934F935F936F937F93CA
:100850008F939F93AF93BF93EF93FF9386EA91E0BB
:1008600050DD90E090939D0180939C0120919E012A
:1008700030919F0182179307A1F015B881E0809312
:100880008E0180919C0190919D0120919E0130915B
:100890009F01821B930B61E0181619060CF060E0B3
:1008A00063DE4AEA51E064EA71E086EA91E013DD32
:1008B0008091AA019091AB017BD180919A01909196
:1008C0009B01019690939B0180939A0180919C01DA
:1008D00090919D0183DD80918E01882321F082E03B
:1008E00085B910928E01FF91EF91BF91AF919F91C9
:1008F0008F917F916F915F914F913F912F910F90C9
:100900000BBE0F900FBE0F901F9018951F920F9265
:100910000FB60F9211240BB60F928F939F93EF9304
:10092000FF9381E08093910180E094E09093A30194
:100930008093A201EAE7F0E0808180648083FF91E8
:10094000EF919F918F910F900BBE0F900FBE0F9064
:100950001F9018951F920F920FB60F9211248F932C
:100960009F939091900181E0911180E0809390019C
:100970009F918F910F900FBE0F901F9018951F920F
:100980000F920FB60F9211248F9381E080938F0105
:100990008F910F900FBE0F901F9018951F920F927E
:1009A0000FB60F9211240BB60F922F933F938F9394
:1009B0009F93EF93FF9380917800909179009093AB
:1009C000A9018093A8012091A8013091A9018091EB
:1009D000A2019091A3012817390740F48091A80142
:1009E0009091A9019093A3018093A201499B05C016
:1009F000EAE7F0E0808180648083FF91EF919F912E
:100A00008F913F912F910F900BBE0F900FBE0F90C3
:100A10001F9018951F920F920FB60F92112460E04D
:100A200081E073DB61E081E01BDC8EE791E0ADDB10
:100A3000FFCF97FB072E16F4009406D077FD08D061
:100A40000BD007FC05D03EF4909581959F4F0895FB
:100A5000709561957F4F0895AA1BBB1B51E107C09C
:100A6000AA1FBB1FA617B70710F0A61BB70B881F3E
:100A7000991F5A95A9F780959095BC01CD010895CD
:100A80000F931F93CF93DF938230910510F482E090
:100A900090E0E091AE01F091AF0120E030E0A0E005
:100AA000B0E0309719F140815181028113814817DC
:100AB0005907C8F08417950769F4109731F012961A
:100AC0000C93129713961C9327C00093AE011093BA
:100AD000AF0122C02115310519F04217530718F450
:100AE0009A01BD01EF01DF01F801DBCF21153105CE
:100AF000F9F0281B390B2430310580F48A819B8161
:100B00006115710521F0FB019383828304C09093EA
:100B1000AF018093AE01FE01329644C0FE01E20FA8
:100B2000F31F8193919322503109398328833AC06E
:100B30002091AC013091AD01232B41F420910201B1
:100B4000309103013093AD012093AC01209100015D
:100B5000309101012115310541F42DB73EB7409187
:100B6000040150910501241B350BE091AC01F0917B
:100B7000AD01E217F307A0F42E1B3F0B281739072E
:100B800078F0AC014E5F5F4F2417350748F04E0FE9
:100B90005F1F5093AD014093AC018193919302C0CC
:100BA000E0E0F0E0CF01DF91CF911F910F91089528
:100BB000CF93DF93009709F481C0FC013297138231
:100BC0001282A091AE01B091AF01109781F4208103
:100BD0003181820F931F2091AC013091AD01281714
:100BE000390751F5F093AD01E093AC0167C0ED0119
:100BF00020E030E0CE17DF0740F44A815B819E01A0
:100C000041155105F1F0EA01F5CFD383C28340814C
:100C10005181840F951FC817D90759F4888199818C
:100C2000840F951F0296918380838A819B81938391
:100C300082832115310529F4F093AF01E093AE01D1
:100C40003DC0E901FB83EA8349915991C40FD51F47
:100C5000EC17FD0761F480819181840F951F029646
:100C6000E90199838883828193819B838A83E0E071
:100C7000F0E012968D919C911397009719F0FD0169
:100C8000DC01F7CF8D919C9111979D012E5F3F4F15
:100C9000820F931F2091AC013091AD0128173907C5
:100CA00069F4309729F41092AF011092AE0102C09E
:100CB00013821282B093AD01A093AC01DF91CF916A
:060CC0000895F894FFCF37
:100CC6000000B00120001400500053525420464446
:100CD60020504400424C20414C2057482053542079
:100CE600234F4200536561726368696E672E2E2E2C
:100CF6000050726F6772616D2053746172740042A6
:100D06004C41434B00574849544500414C554D0012
:100D1600535445454C004D6174657269616C3A20C7
:100D26000052616D70696E6720646F776E00506166
:100D36007573656400556E70617573656400424134
:0E0D46004420495352003000060028000500EA
:00000001FF
