:100000004BC000006CC400008BC4000062C0000044
:10001000ABC40000B8C400005CC000005AC00000BF
:1000200058C0000056C0000054C0000052C000007C
:1000300050C000004EC000004CC000004AC000008C
:1000400048C0000046C0000044C0000042C000009C
:1000500040C000003EC000003CC000003AC00000AC
:1000600038C0000036C0000034C0000032C00000BC
:1000700030C0000097C400002CC000002AC000005F
:1000800028C0000026C0000024C0000022C00000DC
:1000900020C000001EC0000011241FBECFEFD0E220
:1000A000DEBFCDBF11E0A0E0B1E0EEECFCE000E08F
:1000B0000BBF02C007900D92AE38B107D9F721E00F
:1000C000AEE8B1E001C01D92AA3AB207E1F700D351
:1000D000FCC5A4C487B1807F87B9459A46980000C3
:1000E000479A000086B18295807F00004798000003
:1000F000479A000096B1000047980000882384F3D7
:10010000459887B18F6087B90895282F22952F7061
:100110008F70611102C0469801C0469A0000479A4C
:1001200098B1907F922B98B9000047980000479AA9
:1001300098B1907F892B88B9000047980000CACFFA
:100140000895CF93C82F8BE49DE10197F1F700C08C
:10015000000087B18F6087B93F9A3E9A3D9A88B177
:10016000807F88B94798459846980000479A419AF9
:10017000000047980000AEDF60E08C2F8C60C5DF88
:1001800060E088E2C2DFCF910895CF93DF93EC0166
:100190008881882331F0219661E0B7DF8991811150
:1001A000FBCFDF91CF910895EF92FF920F931F93B2
:1001B000CF93DF9300D000D01F92CDB7DEB77B0185
:1001C000FE01319625E0DF011D922A95E9F700979F
:1001D00051F035962AE030E0B9012FD48293862F72
:1001E000972F0097C9F7BFEFEB16FB0669F48981DB
:1001F00081111DC0FE01329600E010E00F5F1F4F1D
:1002000081918823D9F30FC005E010E00E191F0972
:100210000AC0F80181918F0161E0805D76DF0E15E3
:100220001F05B9F711C0053011051CF00DC000E025
:1002300010E081E090E08C0F9D1F080F191F7E01D8
:1002400096E0E90EF11CE5CF0F900F900F900F9004
:100250000F90DF91CF911F910F91FF90EF90089534
:10026000883228F46111806460E080684ECF089580
:10027000FC0111821082FB01118210820895CF933C
:10028000DF93EC0183E090E0FFD399838883FC0146
:1002900012821182DF91CF910895DB01ED91FC91E3
:1002A000309761F0DA018D919C911197928381834F
:1002B0008D919C91FB01918380830895DA012D91AA
:1002C0003C911197FC01318320838D919C91DB013E
:1002D0008D939C930895FC0180819181DA018D9327
:1002E0009C93A081B181109759F011968D919C91AA
:1002F000129791838083892B19F4FB01118210825C
:100300000895DC01ED91FC9180810895FC0181E06C
:1003100020813181232B09F080E00895DC01ED91EB
:10032000FC91309749F080E090E001960180F281E5
:10033000E02D3097D1F7089580E090E00895EAE746
:10034000F0E0808180688083808188608083ECE732
:10035000F0E0808181648083EEE7F0E0808182605C
:100360008083089584B5816084BD84B5826084BD36
:1003700084B5806884BD85B5826085BD80910801A3
:1003800087BD0895E89AE9E6F0E080818260808385
:10039000E99A80818C608083EB9A80818068808379
:1003A000EC9AEAE6F0E080818260808308958D3ADD
:1003B00023E0920754F48C3B22E092074CF48F35F3
:1003C00091404CF482E390E0089580E090E008953D
:1003D00084E690E0089586E990E0089582339105DF
:1003E000A9F01CF4892B41F0089584369105C1F0E1
:1003F00086399105F9F008958091940190919501C5
:1004000001969093950180939401089580919201B3
:100410009091930101969093930180939201089596
:100420008091900190919101019690939101809318
:100430009001089580918E0190918F010196909383
:100440008F0180938E010895AC01E1E8F0E0908186
:100450009860908388EE93E0909389008093880061
:100460001092850010928400B19A20E030E005C01F
:10047000B19BFECFB19A2F5F3F4F241735071CF475
:10048000B19BF6CFF7CF08950F931F93CF93DF93D0
:10049000EC018B0160E081E038DE60E082E035DE77
:1004A0008AE091E072DE61E080E0DADE64E070E034
:1004B000809196019091970177DE61E084E0D0DE33
:1004C000B801CE012BDF63E070E06EDE61E087E013
:1004D000C7DE8091A10163E070E090E065DE80ED11
:1004E00097E0B2DF60E081E010DE60E082E00DDEE8
:1004F00084E191E04ADE61E080E0B2DE63E070E03A
:1005000080919401909195014FDE61E083E0A8DE37
:1005100063E070E0809192019091930145DE61E08B
:1005200086E09EDE63E070E0809190019091910101
:100530003BDE61E089E094DE63E070E080918E0153
:1005400090918F0131DE61E08DE08ADEB801CE014D
:10055000E5DE63E070E028DE88EB9BE075DFDF918D
:10056000CF911F910F910895BF92CF92DF92EF929A
:10057000FF920F931F93CF93DF93181619060CF079
:100580005DC0B62EEC01C12CD12C0F2EF3E0EF2E66
:10059000F12CF02D07EC10E08091980190919901D9
:1005A000843091052CF0109299011092980106C0A8
:1005B000992324F4F0929901E0929801E091980136
:1005C000F0919901EE0FFF1FEA57FE4F808182B92B
:1005D000BB20A9F080919801909199010196909388
:1005E00099018093980180919A0190919B01883C98
:1005F0009105C4F010929B0110929A0113C0809152
:100600009801909199010197909399018093980195
:1006100080919A0190919B01992324F410939B015E
:1006200000939A0180910601909107010DDF8FEFF1
:10063000C81AD80ACC15DD0509F0AECFDF91CF91ED
:100640001F910F91FF90EF90DF90CF90BF90089592
:1006500060E081E05ADD60E082E057DD84E291E015
:1006600094DD10929B0110929A014A9B06C061E0B2
:1006700081E090E079DF4A99FACF10929B011092C5
:100680009A0160E081E041DD60E082E03EDD81E3EF
:1006900091E07BCD08958233910571F01CF4892B94
:1006A000A1F010C08436910521F08639910539F00A
:1006B00009C085E491E008958BE491E0089580E518
:1006C00091E0089580E691E008958FE391E0089528
:1006D0000F931F93CF93DF93CDB7DEB728970FB655
:1006E000F894DEBF0FBECDBFBE016D5F7F4FCE0160
:1006F0000196BEDDF894E1E8F0E0808181608083BE
:100700008FEF81B984B987B91AB810BA80E019DDC2
:100710009FDF28DE82E085B912DE34DE7894809196
:10072000A101882361F149992AC0CE010796A7DD6E
:100730000F8118858091A2019091A30138DEF80104
:100740008083AE01495F5F4FBE016D5F7F4FCE0179
:100750000196A3DD1092A10160E081E0D6DC60E0AB
:1007600082E0D3DC86E591E010DD60E08AE078DDB0
:100770008091A2019091A3011ADE8DDF06DD4899D8
:1007800041C020919A0130919B0180919C019091F0
:100790009D0128173907A1F015B881E080939E01CB
:1007A00080919C0190919D0120919A0130919B0133
:1007B000821B930B61E0181619060CF060E0D4DE82
:1007C000AE014B5F5F4FBE016D5F7F4FCE01019663
:1007D00082DD8D819E81F0D180919601909197016B
:1007E0000196909397018093960180919C0190913E
:1007F0009D01F4DD80919E01882321F082E085B97E
:1008000010929E01CE01019681DD811114C0CE01AE
:10081000019677DD90E090939D0180939C0120915B
:100820009A0130919B018217930749F061E081E0C2
:1008300090E09ADE04C080919F0181112FC08091C9
:10084000A001882309F46BCF15B860E081E05DDC7E
:1008500060E082E05ADC8EE691E097DC84E690E08E
:10086000F3DD1092A001BE016D5F7F4FCE010196B6
:100870000BDE8091A0018823E1F360E081E045DC9C
:1008800060E082E042DC85E791E07FDC84E690E096
:10089000DBDD1092A00182E085B941CF60E081E00C
:1008A00034DC60E082E031DC81E691E06EDC88ECF3
:1008B00090E0CADD15B8F894BE016D5F7F4FCE01A0
:1008C0000196E2DD80E090E028960FB6F894DEBF56
:1008D0000FBECDBFDF91CF911F910F9108951F9251
:1008E0000F920FB60F9211242F933F938F939F93E4
:1008F00020919A0130919B0180919C0190919D01E2
:100900002817390721F015B881E080939E019F9147
:100910008F913F912F910F900FBE0F901F901895C0
:100920001F920F920FB60F9211240BB60F928F9356
:100930009F93EF93FF9381E08093A10180E094E087
:100940009093A3018093A201EAE7F0E080818064A4
:100950008083FF91EF919F918F910F900BBE0F902D
:100960000FBE0F901F9018951F920F920FB60F9207
:1009700011248F9381E08093A0018F910F900FBE7F
:100980000F901F9018951F920F920FB60F9211247F
:100990008F9381E080939F018F910F900FBE0F90F6
:1009A0001F9018951F920F920FB60F9211240BB63D
:1009B0000F922F933F938F939F93EF93FF93809189
:1009C0007800909179009093A5018093A4012091E3
:1009D000A4013091A5018091A2019091A301281753
:1009E000390740F48091A4019091A5019093A3014F
:1009F0008093A201499B05C0EAE7F0E08081806412
:100A00008083FF91EF919F918F913F912F910F9054
:100A10000BBE0F900FBE0F901F9018951F920F9254
:100A20000FB60F92112460E081E06FDB61E081E09E
:100A300017DC8EE791E0A9DBFFCF97FB072E16F4BA
:100A4000009406D077FD08D00BD007FC05D03EF40B
:100A5000909581959F4F0895709561957F4F08956A
:100A6000AA1BBB1B51E107C0AA1FBB1FA617B707D4
:100A700010F0A61BB70B881F991F5A95A9F78095F0
:100A80009095BC01CD0108950F931F93CF93DF93F1
:100A90008230910510F482E090E0E091A801F0919D
:100AA000A90120E030E0A0E0B0E0309719F14081EA
:100AB00051810281138148175907C8F0841795079F
:100AC00069F4109731F012960C93129713961C93B9
:100AD00027C00093A8011093A90122C02115310558
:100AE00019F04217530718F49A01BD01EF01DF0115
:100AF000F801DBCF21153105F9F0281B390B243023
:100B0000310580F48A819B816115710521F0FB011B
:100B10009383828304C09093A9018093A801FE016E
:100B2000329644C0FE01E20FF31F8193919322504D
:100B30003109398328833AC02091A6013091A70159
:100B4000232B41F420910201309103013093A7013E
:100B50002093A6012091000130910101211531055A
:100B600041F42DB73EB74091040150910501241B7B
:100B7000350BE091A601F091A701E217F307A0F46D
:100B80002E1B3F0B2817390778F0AC014E5F5F4FE3
:100B90002417350748F04E0F5F1F5093A70140936D
:100BA000A6018193919302C0E0E0F0E0CF01DF91D4
:100BB000CF911F910F910895CF93DF93009709F480
:100BC00081C0FC01329713821282A091A801B091DA
:100BD000A901109781F420813181820F931F209108
:100BE000A6013091A7012817390751F5F093A70105
:100BF000E093A60167C0ED0120E030E0CE17DF07EB
:100C000040F44A815B819E0141155105F1F0EA01F2
:100C1000F5CFD383C28340815181840F951FC817BC
:100C2000D90759F488819981840F951F0296918381
:100C300080838A819B81938382832115310529F4E6
:100C4000F093A901E093A8013DC0E901FB83EA8389
:100C500049915991C40FD51FEC17FD0761F48081AC
:100C60009181840F951F0296E9019983888382817F
:100C700093819B838A83E0E0F0E012968D919C91B2
:100C80001397009719F0FD01DC01F7CF8D919C912E
:100C900011979D012E5F3F4F820F931F2091A60158
:100CA0003091A7012817390769F4309729F4109279
:100CB000A9011092A80102C013821282B093A70169
:0E0CC000A093A601DF91CF910895F894FFCF85
:100CCE000000AA0120001400500053525420464444
:100CDE0020504400424C20414C2057482053542071
:100CEE00234F4200536561726368696E672E2E2E24
:100CFE000050726F6772616D20537461727400429E
:100D0E004C41434B00574849544500414C554D000A
:100D1E00535445454C004D6174657269616C3A20BF
:100D2E000052616D70696E6720646F776E0050615E
:100D3E007573656400556E7061757365640042412C
:0E0D4E004420495352003000060028000500E2
:00000001FF
