:100000004BC00000D3C20000E0C2000062C000008C
:1000100060C000005EC000005CC000005AC000006C
:1000200058C0000056C0000054C0000052C000007C
:1000300050C000004EC000004CC000004AC000008C
:1000400048C0000046C0000044C0000042C000009C
:1000500040C000003EC000003CC000003AC00000AC
:1000600038C0000036C0000034C0000032C00000BC
:1000700030C00000B9C200002CC000002AC000003F
:1000800028C0000026C0000024C0000022C00000DC
:1000900020C000001EC0000011241FBECFEFD0E220
:1000A000DEBFCDBF11E0A0E0B1E0E0E8F8E000E0A5
:1000B0000BBF02C007900D92A032B107D9F721E023
:1000C000A0E2B1E001C01D92A033B207E1F794D1E4
:1000D000D5C3A4C287B1807F87B9459A46980000EE
:1000E000479A000086B18295807F00004798000003
:1000F000479A000096B1000047980000882384F3D7
:10010000459887B18F6087B90895282F22952F7061
:100110008F70611102C0469801C0469A0000479A4C
:1001200098B1907F922B98B9000047980000479AA9
:1001300098B1907F892B88B9000047980000CACFFA
:100140000895CF93C82F8BE49DE10197F1F700C08C
:10015000000087B18F6087B93F9A3E9A3D9A88B177
:10016000807F88B94798459846980000479A419AF9
:10017000000047980000AEDF60E08C2F8C60C5DF88
:1001800060E088E2C2DFCF910895CF93DF93EC0166
:100190008881882331F0219661E0B7DF8991811150
:1001A000FBCFDF91CF910895883228F461118064EC
:1001B00060E08068AACF0895FC0111821082FB01E3
:1001C000118210820895CF93DF93EC0183E090E0D9
:1001D00034D299838883FC0112821182DF91CF91FE
:1001E0000895DB01ED91FC91309761F0DA018D917A
:1001F0009C911197928381838D919C91FB019183B6
:1002000080830895DA012D913C911197FC0131838F
:1002100020838D919C91DB018D939C930895FC012B
:1002200080819181DB018D939C93A081B181109796
:1002300031F011968D919C9112979183808308954E
:10024000DC01ED91FC9180810895FC0181E0208129
:100250003181232B09F080E00895E9E6F0E0808108
:1002600080638083EAE7F0E080818068808380811A
:1002700088608083ECE7F0E0808180668083EEE731
:10028000F0E0808181608083089584B5816084BDC1
:1002900084B5826084BD84B5806884BD85B5826084
:1002A00085BD80E887BD84B90895CF93DF9300D0E2
:1002B000CDB7DEB79A83898360E081E026DF60E016
:1002C00082E023DFCE010196C0DF88E091E05DDFB0
:1002D0000F900F90DF91CF9108958A3C23E0920711
:1002E00054F4853F22E092074CF4833391404CF460
:1002F00086E990E0089580E090E0089582E390E040
:10030000089584E690E00895AC01E1E8F0E0908182
:100310009860908388EE93E09093890080938800A2
:100320001092850010928400B19A20E030E005C060
:10033000B19BFECFB19A2F5F3F4F241735071CF4B6
:10034000B19BF6CFF7CF0895DF92EF92FF920F9314
:100350001F93CF93DF93181619060CF040C0D62ECA
:10036000EC01E12CF12C03E010E08091220190914E
:100370002301843091052CF0109223011092220168
:1003800006C0992324F41093230100932201E091E5
:100390002201F0912301EE0FFF1FE85EFE4F8081E6
:1003A00082B9DD2051F080912201909123010196C4
:1003B000909323018093220109C0809122019091A2
:1003C00023010197909323018093220184E190E01F
:1003D0009BDF8FEFE81AF80ACE15DF0531F6DF91C3
:1003E000CF911F910F91FF90EF90DF90089561E002
:1003F00081E190E0A9CF0895AF92BF92DF92EF9292
:10040000FF920F931F93CF93DF93CDB7DEB728975B
:100410000FB6F894DEBF0FBECDBFBE016D5F7F4F3C
:10042000CE010196C9DEF89482EF85B9E1E8F0E0EB
:100430008081816080838FEF81B984B987B91AB8D0
:1004400010BA80E07EDED3DF20DF07DF7894DD2482
:10045000D3940AE710E00F2EF6E0EF2EF1E0FF2E26
:10046000F02D7A9B11C080912A01811127C08091C3
:100470002601811123C0D0922A01D0922901F801CE
:100480008081806480831AC0809129018823B1F023
:100490008F81988598DEAF80B88480912B0190E0A1
:1004A0001CDFF5018083AE01495F5F4FBE016D5FC8
:1004B0007F4FCE01019695DE109229017B992AC0CB
:1004C000CE010196BDDE90E02091240130912501FE
:1004D00082179307E1F4BE016B5F7F4FCE01019657
:1004E0009EDE8D819E8141D18091200190912101DC
:1004F0000196909321018093200180912601882309
:1005000049F0F701808187BD1092260103C017BC16
:10051000D0922601CE01019698DE811110C0CE0145
:1005200001968EDE90E02091240130912501821702
:10053000930749F46D2D81E090E006DF04C08091BF
:10054000270181111AC080912801882309F489CFDD
:1005500084E690E0D9DE10922801BE016D5F7F4FE6
:10056000CE010196A2DE809128018823E1F384E682
:1005700090E0CADE1092280174CF17BCBE016D5FF7
:100580007F4FCE01019691DE80E090E028960FB675
:10059000F894DEBF0FBECDBFDF91CF911F910F91B9
:1005A000FF90EF90DF90BF90AF9008951F920F9251
:1005B0000FB60F9211248F9381E0809328018F91C1
:1005C0000F900FBE0F901F9018951F920F920FB6AD
:1005D0000F9211248F9381E0809327018F910F90C8
:1005E0000FBE0F901F9018951F920F920FB60F928B
:1005F00011248F939F939091790080912B019817EC
:1006000020F48091790080932B0110922A019F9110
:100610008F910F900FBE0F901F9018951F920F9201
:100620000FB60F92112460E081E06FDD61E081E0A0
:10063000BBDD80E191E0A9DDFFCF0F931F93CF9346
:10064000DF938230910510F482E090E0E0912E017A
:10065000F0912F0120E030E0A0E0B0E0309719F1F8
:10066000408151810281138148175907C8F08417CE
:10067000950769F4109731F012960C931297139620
:100680001C9327C000932E0110932F0122C0211527
:10069000310519F04217530718F49A01BD01EF0113
:1006A000DF01F801DBCF21153105F9F0281B390BEB
:1006B0002430310580F48A819B816115710521F018
:1006C000FB019383828304C090932F0180932E01BA
:1006D000FE01329644C0FE01E20FF31F8193919315
:1006E00022503109398328833AC020912C0130915E
:1006F0002D01232B41F4209102013091030130930D
:100700002D0120932C012091000130910101211530
:10071000310541F42DB73EB74091040150910501D8
:10072000241B350BE0912C01F0912D01E217F3070A
:10073000A0F42E1B3F0B2817390778F0AC014E5F51
:100740005F4F2417350748F04E0F5F1F50932D0160
:1007500040932C018193919302C0E0E0F0E0CF013F
:10076000DF91CF911F910F910895CF93DF93009761
:1007700009F481C0FC01329713821282A0912E01EC
:10078000B0912F01109781F420813181820F931F46
:1007900020912C0130912D012817390751F5F09344
:1007A0002D01E0932C0167C0ED0120E030E0CE1771
:1007B000DF0740F44A815B819E0141155105F1F04C
:1007C000EA01F5CFD383C28340815181840F951F05
:1007D000C817D90759F488819981840F951F02960B
:1007E000918380838A819B81938382832115310544
:1007F00029F4F0932F01E0932E013DC0E901FB8322
:10080000EA8349915991C40FD51FEC17FD0761F494
:1008100080819181840F951F0296E90199838883D5
:10082000828193819B838A83E0E0F0E012968D9130
:100830009C911397009719F0FD01DC01F7CF8D9182
:100840009C9111979D012E5F3F4F820F931F209126
:100850002C0130912D012817390769F4309729F4BC
:1008600010922F0110922E0102C013821282B093B7
:100870002D01A0932C01DF91CF910895F894FFCF23
:10088000000030012000FF0054657374696E67003A
:100890004241442049535200300006002800050020
:00000001FF
